:1000000071C000008EC000008CC000008AC00000DB
:1000100088C0000004C2000019C200002EC2000007
:1000200043C200007EC000007CC000007AC0000017
:1000300078C0000076C0000074C0000072C00000EC
:1000400070C000006EC000006CC000006AC00000FC
:1000500068C0000066C0000064C0000062C000000C
:1000600060C000009FC000005CC000005AC00000DB
:1000700058C0000056C0000054C0000052C000002C
:1000800050C000004EC000004CC000004AC000003C
:1000900048C0000046C0000044C0000042C000004C
:1000A00040C000003EC000003CC000003AC000005C
:1000B00038C0000036C0000034C0000032C000006C
:1000C00030C000002EC000002CC000002AC000007C
:1000D00028C0000026C0000024C0000022C000008C
:1000E00020C0000011241FBECFEFD1E2DEBFCDBF84
:1000F00000E00CBF12E0A0E0B2E0EAE7F6E000E0CA
:100100000BBF02C007900D92A43BB107D9F722E0C4
:10011000A4EBB2E001C01D92AD3BB207E1F7DBD129
:10012000AAC26ECF209A28980895289A08952898F0
:100130000895E1E0F1E0808181608083299808954D
:10014000E2E0F1E08081816080830895E2E0F1E007
:1001500080818E7F80830895E1ECF0E01082109220
:10016000C00086E08093C2008FE58093C4001092A7
:10017000C50088E980830895E0ECF0E0908195FF68
:10018000FDCF8093C6000895CF93DF93EC01888163
:10019000882329F02196F0DF89918111FCCFDF912E
:1001A000CF9108951F920F920FB60F9211240BB6A4
:1001B0000F928F93EF93FF93E6ECF0E080818093B2
:1001C000BC028091BC028083FF91EF918F910F90D0
:1001D0000BBE0F900FBE0F901F90189510BA11BA5A
:1001E00010920701109208010895EAE7F0E01082EA
:1001F00010927B0080E280937C0080E880BF86E8DC
:1002000080830895883018F098E090937B00877081
:10021000806280937C00EAE7F0E0808180648083E4
:10022000808184FFFDCF80917900EAE7F0E0908142
:100230009061908310927B000895DF92EF92FF927D
:100240000F931F93CF93DF93CDB7DEB7CB54D10974
:100250000FB6F894DEBF0FBECDBF8FE1E0E0F2E055
:100260008E010F5F1F4FD80101900D928A95E1F723
:10027000FE01B0968DE1DF011D928A95E9F783E0DA
:10028000C1DFD82E82E0BEDFE82E81E0BBDFF82E92
:100290004AE050E0BE01635C7F4F8D2D90E0AED10F
:1002A0004AE050E0BE016E5B7F4F8E2D90E0A6D1FC
:1002B0004AE050E0BE01695B7F4F8F2D90E09ED1F8
:1002C000BE01635C7F4FC8018ED1F8010190002010
:1002D000E9F731976894EE24E5F8F12CF182E08299
:1002E000BE016E5B7F4FC8017ED1F80101900020F6
:1002F000E9F73197F182E082BE01695B7F4FC80167
:1003000072D1F80101900020E9F731978DE09AE071
:10031000918380831282C80137DFC55BDF4F0FB640
:10032000F894DEBF0FBECDBFDF91CF911F910F912B
:10033000FF90EF90DF900895389A88B118B808952B
:10034000992354F020E030E045E04A95F1F72F5F23
:100350003F4F82179307C4F70895409AF1DF409802
:1003600026E686EE90E0215080409040E1F7089527
:100370000F931F93CF93DF9364EB70E00DD18CEB61
:1003800092E0689F8001699F100D789F100D1124E5
:10039000005E1C4FC4E1D0E0C801DFDF2197E1F728
:1003A000DF91CF911F910F91089581B1836081B941
:1003B00082B18C7F82B9089582B18C7F82B9119A03
:1003C000089582B18C7F82B9109A089582B18C7F92
:1003D00082B9089581B18C6081B982B1837F82B97D
:1003E000089582B1837F82B9139A089582B1837F81
:1003F00082B9129A089582B1837F82B908958DB12E
:100400008F708DB98EB1806F8EB9EAE6F0E0108200
:1004100080818A6A80838DB3806F8DBB08951F921F
:100420000F920FB60F9211248F939F938091BA026F
:100430009091BB0201969093BB028093BA029F9168
:100440008F910F900FBE0F901F9018951F920F92D3
:100450000FB60F9211248F939F938091B8029091C1
:10046000B90201969093B9028093B8029F918F913F
:100470000F900FBE0F901F9018951F920F920FB6FE
:100480000F9211248F939F938091B6029091B7029F
:1004900001969093B7028093B6029F918F910F902F
:1004A0000FBE0F901F9018951F920F920FB60F92CC
:1004B00011248F939F938091B4029091B50201967D
:1004C0009093B5028093B4029F918F910F900FBECD
:1004D0000F901F901895789425DE2BDE2DDF3CDEE3
:1004E0007DDE83DE62DF76DF8ADF8091BC028136CB
:1004F00009F41BDE8091BC02823609F418DE80917B
:10050000BC028D3609F41CDE8091BC028E3609F4E3
:100510001DDE8091BC02873709F48FDE8091BC021A
:10052000833719F480E090E023DF8091BC028436A9
:1005300019F484EB90E01CDF8091BC02813309F454
:100540003BDF8091BC02823309F43BDF8091BC0227
:10055000833349F43BDF1092BB021092BA0210922F
:10056000B9021092B8028091BC02843309F439DFD9
:100570008091BC02853309F439DF8091BC02863357
:1005800009F439DF2FEF8FE794E02150804090404D
:10059000E1F700C00000A9CF97FB072E16F40094E6
:1005A00006D077FD08D00BD007FC05D03EF490951F
:1005B00081959F4F0895709561957F4F0895AA1B6F
:1005C000BB1B51E107C0AA1FBB1FA617B70710F03E
:1005D000A61BB70B881F991F5A95A9F78095909570
:1005E000BC01CD010895FB01DC010D900020E9F76D
:1005F000119701900D920020E1F7089545325105C1
:1006000018F4423008F004C0FB011082CB010895B9
:10061000BB274A3031F4992322F4BDE290958195AD
:100620009F4F01C0BB27FB015527AA27880F991FA1
:10063000AA1FA41710F0A41B83955051B9F7A05D11
:10064000AA3308F0A95DA193009779F7B111B1938E
:100650001192CB0100C0DC01FC01672F719177235F
:10066000E1F7329704C07C916D9370836291AE176D
:0A067000BF07C8F30895F894FFCF08
:10067A005768697465204C696E652053656E736F9F
:10068A00722052656164696E6773203A2020000007
:10069A000000000000000000000000000000000050
:1006AA00000000000000000000000000456E636FBB
:1006BA0064657220436F756E74206973202D000083
:1006CA000000000000000000000000000000000020
:1006DA000000000000000000000000000000000010
:1006EA000000000000000000000000000000000000
:1006FA0000000000000000000000000000000000F0
:10070A0000000000000000000000000000000000DF
:10071A0000000000000000000000000000000000CF
:04072A0000000000CB
:00000001FF
